:100000000C9463010C948B010C948B010C949A1149
:100010000C949A110C949A110C948B010C948B01F2
:100020000C948B010C948B010C948B010C948B0120
:100030000C948B010C948B010C948B010C948B0110
:100040000C94D90F0C948B010C9449100C94231030
:100050000C948B010C948B010C948B010C948B01F0
:100060000C947B100C948B010000000024002700EE
:100070002A000000C1C081C1400101C3C003800249
:1000800041C201C6C006800741C70005C1C581C481
:10009000400401CCC00C800D41CD000FC1CF81CEFA
:1000A000400E000AC1CA81CB400B01C9C0098008BB
:1000B00041C801D8C018801941D9001BC1DB81DAC1
:1000C000401A001EC1DE81DF401F01DDC01D801C03
:1000D00041DC0014C1D481D5401501D7C01780166A
:1000E00041D601D2C012801341D30011C1D181D0B9
:1000F000401001F0C030803141F10033C1F381F292
:1001000040320036C1F681F7403701F5C035803402
:1001100041F4003CC1FC81FD403D01FFC03F803EF9
:1001200041FE01FAC03A803B41FB0039C1F981F838
:1001300040380028C1E881E9402901EBC02B802A22
:1001400041EA01EEC02E802F41EF002DC1ED81EC80
:10015000402C01E4C024802541E50027C1E781E669
:1001600040260022C1E281E3402301E1C02180203A
:1001700041E001A0C060806141A10063C1A381A2F0
:1001800040620066C1A681A7406701A5C065806482
:1001900041A4006CC1AC81AD406D01AFC06F806EF9
:1001A00041AE01AAC06A806B41AB0069C1A981A8B8
:1001B00040680078C1B881B9407901BBC07B807AC2
:1001C00041BA01BEC07E807F41BF007DC1BD81BC00
:1001D000407C01B4C074807541B50077C1B781B669
:1001E00040760072C1B281B3407301B1C0718070BA
:1001F00041B00050C190819140510193C053805251
:1002000041920196C056805741970055C1958194FF
:100210004054019CC05C805D419D005FC19F819EF8
:10022000405E005AC19A819B405B0199C059805839
:1002300041980188C04880494189004BC18B818A1F
:10024000404A004EC18E818F404F018DC04D804C81
:10025000418C0044C184818540450187C047804668
:1002600041860182C042804341830041C181818037
:1002700040400000000800020100000304070000E5
:1002800000000000000000000000230026002900FC
:1002900000000000250028002B00040404040404CE
:1002A0000404020202020202030303030303010225
:1002B00004081020408001020408102001020408F4
:1002C000102057122C1611241FBECFEFD8E0DEBF2E
:1002D000CDBF12E0A0E0B1E0EAE4F4E302C0059093
:1002E0000D92AA38B107D9F724E0AAE8B2E001C01C
:1002F0001D92A03CB207E1F711E0C2E6D1E004C0D4
:100300002197FE010E94ED18C136D107C9F70E945E
:100310008C130C94181A0C940000DC01680F791FE0
:100320008FEF9FEFA617B70771F0ED91292F3327B5
:10033000E827F0E0EE0FFF1FEE58FF4F85919491F4
:1003400082279327EFCF0895833081F028F48130FE
:1003500099F08230A9F008958730A9F08830C9F06B
:100360008430B1F4809180008F7D03C08091800043
:100370008F7780938000089584B58F7784BD08952A
:1003800084B58F7DFBCF8091B0008F778093B000D4
:1003900008958091B0008F7DF9CFCF93DF93282F00
:1003A00030E0F901EE58FD4F8491F901E255FD4F1F
:1003B000D491F901E656FD4FC491CC23A1F08111EF
:1003C0000E94A401EC2FF0E0EE0FFF1FEA57FD4F53
:1003D000A591B491EC91ED2381E090E009F480E0E7
:1003E000DF91CF91089580E090E0FACF1F93CF93F3
:1003F000DF93282F30E0F901EE58FD4F8491F90189
:10040000E255FD4FD491F901E656FD4FC491CC233E
:10041000A9F0162F81110E94A401EC2FF0E0EE0F3D
:10042000FF1FE057FD4FA591B4918FB7F894EC9161
:10043000111108C0D095DE23DC938FBFDF91CF91DF
:100440001F910895DE2BF8CFCF93DF9390E0FC014E
:10045000E255FD4F249186569D4FFC0184918823DF
:10046000D1F090E0880F991FFC01E859FF4FA5914A
:10047000B491FC01E057FD4FC591D49161110EC0BC
:100480009FB7F8948C91E22FE0958E238C9328816E
:10049000E223E8839FBFDF91CF9108958FB7F8944F
:1004A000EC91E22BEC938FBFF6CFCF93DF93EC016F
:1004B00061E083E00E942402209731F460E083E051
:1004C000DF91CF910C94F601CF3FD10511F461E09B
:1004D000F6CFE5E7F2E0E491E33029F140F4E130D2
:1004E000B1F0E230D9F0C038D1058CF7E7CFE73072
:1004F00021F1E83051F1E430B1F780918000806261
:1005000080938000D0938B00C0938A0004C084B590
:10051000806884BDC7BDDF91CF91089584B58062A6
:1005200084BDC8BDF8CF8091800080688093800032
:10053000D0938900C0938800EECF8091B00080688E
:100540008093B000C093B300E6CF8091B00080628A
:100550008093B000C093B400DECF3FB7F894809191
:100560009E0390919F03A091A003B091A10326B593
:10057000A89B05C02F3F19F00196A11DB11D3FBFDB
:10058000BA2FA92F982F8827BC01CD01620F711DAA
:10059000811D911D42E0660F771F881F991F4A95A4
:1005A000D1F708958F929F92AF92BF92CF92DF9230
:1005B000EF92FF926B017C010E94AD024B015C0146
:1005C000C114D104E104F104B9F00E94AD0268192C
:1005D00079098A099B09683E73408105910580F37A
:1005E00021E0C21AD108E108F10888EE880E83E004
:1005F000981EA11CB11CE4CFFF90EF90DF90CF902C
:10060000BF90AF909F908F9008952FB7F89460910E
:100610009A0370919B0380919C0390919D032FBF3F
:10062000089508950895AF92BF92CF92DF92EF920E
:10063000FF920F931F93CF93DF936C017B018B018C
:10064000040F151FEB015E01AE18BF08C017D107DC
:1006500059F06991D601ED91FC910190F081E02D66
:10066000C6010995892B79F7C501DF91CF911F91BB
:100670000F91FF90EF90DF90CF90BF90AF900895D3
:10068000FC01538D448D252F30E0842F90E0821B98
:10069000930B541710F0CF96089501970895FC011D
:1006A000918D828D981761F0A28DAE0FBF2FB11D75
:1006B0005D968C91928D9F5F9F73928F90E00895CD
:1006C0008FEF9FEF0895FC01918D828D981731F087
:1006D000828DE80FF11D858D90E008958FEF9FEFDB
:1006E0000895FC01918D228D892F90E0805C9F4FB1
:1006F000821B91098F73992708958BEB93E00E94D9
:10070000710321E0892B09F420E0822F089580E015
:1007100090E0892B29F00E947D0381110C94000048
:100720000895FC01A48DA80FB92FB11DA35ABF4F86
:100730002C91848D90E001968F739927848FA689E0
:10074000B7892C93A089B1898C91837080648C9334
:10075000938D848D981306C00288F389E02D8081E3
:100760008F7D80830895EF92FF920F931F93CF9315
:10077000DF93EC0181E0888F9B8D8C8D98131AC0DC
:10078000E889F989808185FF15C09FB7F894EE89C3
:10079000FF896083E889F989808183708064808320
:1007A0009FBF81E090E0DF91CF911F910F91FF906B
:1007B000EF900895F62E0B8D10E00F5F1F4F0F7313
:1007C0001127E02E8C8D8E110CC00FB607FCFACFCE
:1007D000E889F989808185FFF5CFCE010E949103D8
:1007E000F1CFEB8DEC0FFD2FF11DE35AFF4FF0829F
:1007F0009FB7F8940B8FEA89FB8980818062CFCF05
:10080000CF93DF93EC01888D8823B9F0AA89BB8947
:10081000E889F9898C9185FD03C0808186FD0DC032
:100820000FB607FCF7CF8C9185FFF2CF808185FF53
:10083000EDCFCE010E949103E9CFDF91CF910895D2
:1008400020914203260F3327331F21323105ECF468
:1008500020916603FC0190E080E0243069F082E0A2
:100860000895A09142032191AC014E5D5C4FA40F0D
:10087000B52FB11D2C930196861798F380914203F2
:10088000680F6093420380E0089581E0089510921C
:10089000660381E0809368031092670361E082E160
:1008A0000E94F60161E083E10E94F601E9EBF0E0CD
:1008B00080818E7F808380818D7F808388E4809398
:1008C000B80085E48093BC000895CF93DF9391E056
:1008D000909321038823B9F0C091B800D091BA0059
:1008E0008091BC008A7B8093BC0060E082E10E9422
:1008F000F60160E083E10E94F6010E944704D09374
:10090000BA00C093B800DF91CF9108950895E091A7
:10091000930380919203E81730F4F0E0E450FD4F28
:10092000808190E008958FEF9FEF08959091930359
:10093000809192032FEF3FEF981748F4E92FF0E0F2
:10094000E450FD4F208130E09F5F90939303C901F5
:1009500008958091920390919303891B990B0895B8
:10096000CF92DF92EF92FF920F931F93CF93DF937B
:100970007C01CB018A012091FB02222389F0EB014B
:100980006B01C40ED51ECC15DD0569F06991D70148
:10099000ED91FC910190F081E02DC7010995F3CF15
:1009A000642F0E942004C801DF91CF911F910F9105
:1009B000FF90EF90DF90CF900895CF93DF931F9239
:1009C000CDB7DEB769832091FB022223F9F0209195
:1009D0009003203258F021E030E0FC013383228381
:1009E00090E080E00F90DF91CF9108958091910386
:1009F000E82FF0E0E552FD4F998190838F5F80935F
:100A000091038093900381E090E0ECCF61E0CE0110
:100A100001960E942004F7CFCF92DF92EF92FF92CF
:100A20000F931F93CF93DF93FC01C48121E02093A8
:100A3000FB02C093DA021092910310929003838517
:100A4000682B88E594E00E94DD04D0919003D132B8
:100A500008F092C00E94AD026B017C018091660398
:100A6000811165C082E08093660381E08093680312
:100A70008FEF8093650310928A03D0938903ABEDC7
:100A8000B2E0E9E6F3E080E0D81385C010928B0372
:100A900080918B03CC0FC82BC0938B03809167038D
:100AA000813009F07CC0109267030E94AD026B0197
:100AB0007C0180918B038093BB0080911D039091FA
:100AC0001E03A0911F03B0912003892B8A2B8B2B2F
:100AD00099F00E94AD0200911D0310911E03209118
:100AE0001F03309120036C197D098E099F09061799
:100AF000170728073907E0F18091BC0083FDD9CFA3
:100B000085EC8093BC000E94AD026B017C0180915A
:100B10006603823009F445C0809165038F3F61F11F
:100B200080916503803241F18091650325C08091F9
:100B30001D0390911E03A0911F03B0912003892BE8
:100B40008A2B8B2B09F48ACF0E94AD0200911D03E2
:100B500010911E0320911F03309120036C197D0911
:100B60008E099F09061717072807390708F076CF5F
:100B700080911C030E9465041092910310929003CF
:100B80001092FB02DF91CF911F910F91FF90EF9098
:100B9000DF90CF9008959D9191938F5F75CF85EEF3
:100BA000B0CF80911D0390911E03A0911F03B091BF
:100BB0002003892B8A2B8B2B09F4A9CF0E94AD022D
:100BC00000911D0310911E0320911F0330912003FB
:100BD0006C197D098E099F09061717072807390721
:100BE00008F095CFC5CF08952091D8023091D90251
:100BF0002817390771F49091D7028091D60298177F
:100C000041F0E091D702F0E0EA56FD4F808190E09C
:100C100008958FEF9FEF0895EF92FF920F931F9328
:100C2000CF93DF93DC015C96ED90FC905D97E1142F
:100C3000F10479F481E090E013969C938E931297DF
:100C400090E080E0DF91CF911F910F91FF90EF90A6
:100C500008955196ED91FC91529750968C91509732
:100C6000982F90950FB75E962C915E97122F127069
:100C700021FD6095F8942081112319F1282B208300
:100C8000E7012197F1F728E0462F50E0308160FF1F
:100C90001AC0382B3083E7012197F1F7BA01759517
:100CA0006795215089F7112381F080818923808302
:100CB0000FBF5C968D919C910197F1F781E090E0D8
:100CC000C1CF2923DCCF3923E5CF9081892BEFCF0A
:100CD0002091D8023091D9022817390761F4809108
:100CE000D6022091D70290E0805C9F4F821B910931
:100CF0008F739927089590E080E008952091D8029D
:100D00003091D90228173907B9F49091D702809110
:100D1000D602981789F0E091D702F0E0EA56FD4F2D
:100D200080812091D70230E02F5F3F4F2F73332710
:100D30002093D70290E008958FEF9FEF0895E09100
:100D4000D802F091D902E817F90769F4A389B489A8
:100D50009C918589809589238C931092D902109259
:100D6000D80281E0089580E00895CF93DF93EC01ED
:100D70008A8D9B8D892B01F18091D8029091D902A7
:100D80008C179D07C9F0009711F00E949F068E8D69
:100D90008E7F8E8F1092D6021092D702D093D902F6
:100DA000C093D802EB89FC8980819D89892B80833F
:100DB00081E0DF91CF91089580E0FBCF8F929F92E9
:100DC000AF92BF92CF92DF92EF92FF920F931F9359
:100DD000CF93DF938C016B0180917204882331F0F3
:100DE00080917004909171040E94B5060E940503E1
:100DF0004B015C01F12CCF2DD0E0CC15DD0550F17D
:100E00007E0182E0E81AF108B701C8010E948D0155
:100E1000F801EC0FFD1F319720810E0D1F1DD80129
:100E20003C912327322723278217930709F440C0D8
:100E300010927604D0E0C0E0CE01DF91CF911F91F7
:100E40000F91FF90EF90DF90CF90BF90AF909F9069
:100E50008F9008950E940503681979098A099B09F2
:100E60006436710581059105F8F4809170049091C4
:100E70007104DC01ED91FC910084F185E02D099570
:100E8000181619060CF0B9CF809170049091710476
:100E9000DC01ED91FC910284F385E02D0995F3943A
:100EA000C00FD11F8883A7CFC330D10508F2A8CFC8
:100EB00081E080937604C0CF90E080E008958FEFCA
:100EC00090E00E94550260E08BE00E94F60160E035
:100ED0008AE00E94F60160E087E00E94F60161E08E
:100EE00089E00E94F60161E084E00E94F60164E678
:100EF00070E080E090E00E94D20260E089E00E9411
:100F0000F60160E084E00E94F60164E670E080E0B3
:100F100090E00E94D20210929603089510929803D6
:100F20001092970388EE93E040E440937C00209178
:100F30007A00206420937A0020917A0026FDFCCF6D
:100F40002091780030917900609197037091980317
:100F50006217730724F43093980320939703019743
:100F600021F708950F931F93CF93DF93CDB7DEB78B
:100F700028970FB6F894DEBF0FBECDBF0E940503C1
:100F80000091910410919204209193043091940463
:100F9000601B710B820B930B693C710581059105F8
:100FA00008F4FBC00E9405038B019C01609391042F
:100FB00010939204809393043093940410929504B8
:100FC00010929604109297041092980480917504E0
:100FD000898384E08A831B821C821D828AE08E833F
:100FE00066E070E0CE0101960E948D018F839887A4
:100FF0008091700490917104DC01ED91FC9102806C
:10100000F381E02D48E050E0BE016F5F7F4F09950E
:1010100069E170E082EA93E00E94DE06499709F0F8
:10102000C8C06091A5037091A6037627672776272D
:1010300090E080E00E947A1720E030E040E251E446
:101040000E94D21660937704709378048093790499
:1010500090937A042091A7036091A90370E090E037
:1010600080E0962F882777276627722B2091A80388
:10107000622B2091AA03822B0E947A1720E030E095
:101080004AE754E40E94D21660937B0470937C0478
:1010900080937D0490937E042091AB036091AD0317
:1010A00070E090E080E0962F882777276627722BE4
:1010B0002091AC03622B2091AE03822B0E947A1701
:1010C00020E030E040E251E40E94D21660937F04B9
:1010D0007093800480938104909382042091AF03E5
:1010E0006091B10370E090E080E0962F8827772729
:1010F0006627722B2091B003622B2091B203822BC2
:101100000E947A1720E030E04AE754E40E94D216A9
:101110006093830470938404809385049093860481
:101120006091B3037091B40376276727762790E028
:1011300080E00E947A1720E030E040E251E40E9413
:10114000D2166093870470938804809389049093E7
:101150008A046091B5037091B603762767277627D6
:1011600090E080E00E947A1720E030E048EC52E402
:101170000E94D21660938B0470938C0480938D042C
:1011800090938E048091B7039091B8039827892794
:1011900098279093900480938F0481E028960FB64F
:1011A000F894DEBF0FBECDBFDF91CF911F910F919D
:1011B000089580E0F3CF0F931F93CF938C01C62F38
:1011C0000E940C056C2F6460C8010E940C056C2FF6
:1011D0006B7FC8010E940C0583EC90E00197F1F74A
:1011E000CF911F910F9108950F931F93CF93DF938A
:1011F0008C01D62FC42F607F642B0E94DB0880E116
:10120000D89FB00111246C2BC801DF91CF911F91A1
:101210000F910C94DB0840E061E084E694E00E94CA
:10122000F4088BE39FE10197F1F70895CF93DF93E3
:10123000CDB7DEB728970FB6F894DEBF0FBECDBF8F
:1012400098E0E6E0F1E0DE01119601900D929A95AA
:10125000E1F790916C04961710F46FEF690F262F49
:1012600030E0220F331F41E050E04C0F5D1F240F90
:10127000351FF9016081680F606840E084E694E002
:1012800028960FB6F894DEBF0FBECDBFDF91CF9189
:101290000C94F40841E00E94F40881E090E0089585
:1012A0000F931F93E3EBF2E06491EFE9F2E0E49136
:1012B000F0E0EE0FFF1FEA57FD4F8591949100E596
:1012C00013EC20E030E0462F0E94121261157105E8
:1012D0008105910529F06F5F7F4F8F4F9F4F9F7062
:1012E0001F910F910895FC0101900020E9F73197BB
:1012F000AF01481B590BBC0184E694E00C94130326
:101300008F929F92AF92BF920F931F93CF93DF93D1
:10131000CDB7DEB7A1970FB6F894DEBF0FBECDBF35
:1013200019A2423008F44AE08E010F5D1F4F842E4F
:10133000912CB12CA12CA50194010E94B718E62F85
:10134000B901CA01EA30F4F4E05DD801EE938D01F1
:10135000232B242B252B79F790E080E0109719F0B0
:10136000CD010E947309A1960FB6F894DEBF0FBE9F
:10137000CDBFDF91CF911F910F91BF90AF909F9004
:101380008F900895E95CE1CFCF92DF92EF92FF92C8
:101390006C01990FEE08FF08F7FE16C041E06DE200
:1013A00084E694E00E94F40866277727CB016C1945
:1013B0007D098E099F094AE00E9480090196FF90ED
:1013C000EF90DF90CF9008954AE0C701B601FF90FB
:1013D000EF90DF90CF900C9480090C9473098F925A
:1013E0009F92AF92BF92CF92DF92EF92FF920F93B4
:1013F0001F93CF93DF93809195028823B1F00E94D1
:10140000050300918D0210918E0220918F02309180
:101410009002601B710B820B930B6093910270938F
:101420009202809393029093940280909102909004
:101430009202A0909302B0909402C501B40128EEEC
:1014400033E040E050E00E94B7188CE3C82ED12C66
:10145000E12CF12CCA01B901A70196010E94B7182D
:101460008B01C501B40120E63AEE40E050E00E9455
:10147000B718CA01B901A70196010E94B7187B01EC
:10148000C501B40120E83EEE46E350E00E94B718E3
:10149000690161E080E00E94160980E591E00E9408
:1014A000ED0961E087E00E941609CAE0D0E0C601BC
:1014B000BE010E94A3186C01CB01BE010E94A318BB
:1014C0000E94C409C6010E94C40988E591E00E94F7
:1014D000ED09C701BE010E94A3187C01CB010E9447
:1014E000C409C7010E94C4098BE591E00E94ED097F
:1014F000C801BE010E94A318EC01CB010E94C409DF
:10150000CE010E94C40980E691E0DF91CF911F9146
:101510000F91FF90EF90DF90CF90BF90AF909F9092
:101520008F900C94ED094F925F926F927F928F9201
:101530009F92AF92BF92CF92DF92EF92FF920F9362
:101540001F93CF936B017C01742EAC019B010E9411
:101550009E18882399F082E691E0CF911F910F9118
:10156000FF90EF90DF90CF90BF90AF909F908F90C3
:101570007F906F905F904F900C94730946015701D4
:10158000E894B7F82FEF3FEF4FE75FE7C501B401ED
:101590000E949E1881110DC02FEF3FEF4FE75FE7CC
:1015A000C501B4010E94CD1618161CF486E691E020
:1015B000D4CF2FEF3FEF4FE75FE4C701B6010E94A2
:1015C0002C1818161CF48AE691E0C7CF2FEF3FEFD6
:1015D0004FE75FECC701B6010E94CD1687FDF3CF40
:1015E00020E030E0A901C701B6010E94CD1610E04D
:1015F00000E087FF0CC041E06DE284E694E00E94C9
:10160000F408F7FAF094F7F8F09401E010E0C0E085
:1016100060E070E080E09FE37C1641F020E030E085
:1016200040E251E40E94D216CF5FF6CFA7019601A7
:101630000E9461164B015C010E944B172B013C017B
:101640004AE00E948009080F191FCC23C9F1C30189
:10165000B2010E947A179B01AC01C501B4010E943E
:1016600060164B015C0141E06EE284E694E00E946A
:10167000F4080F5F1F4FC15018F120E030E040E246
:1016800051E4C501B4010E9431182B013C010E94B4
:101690004B174B01B12CA12C4AE0C501B4010E94AB
:1016A0008009080F191FC501B4010E947A179B0118
:1016B000AC01C301B2010E9460164B015C01DBCF9B
:1016C000C801CF911F910F91FF90EF90DF90CF90C5
:1016D000BF90AF909F908F907F906F905F904F9052
:1016E000089585ED8093BC0080911D0390911E03A9
:1016F000A0911F03B09120030796A11DB11D23E007
:10170000B695A795979587952A95D1F72091BC0016
:1017100024FD03C010926603089540911D0350916B
:101720001E0360911F0370912003452B462B472B0E
:1017300069F30097A105B10541F02AE22A95F1F776
:1017400000C00197A109B109E1CF80911C030C945D
:1017500065040F931F93CF93DF93CDB7DEB729971F
:101760000FB6F894DEBF0FBECDBF82E00E94CD0160
:10177000019709F04BC08FEF90E00E94550260E0A6
:1017800087E00E94F60160E08AE00E94F60160E0D6
:101790008BE00E94F60161E089E00E94F60161E0C1
:1017A00084E00E94F60164E670E080E090E00E9430
:1017B000D20260E084E00E94F60160E089E00E94CD
:1017C000F60164E670E080E090E00E94D2021092A0
:1017D00096030E940B0960E080E00E9416098EE6E5
:1017E00091E00E94ED0962E080E00E94160986E720
:1017F00091E00E94ED0929960FB6F894DEBF0FBE66
:10180000CDBFDF91CF911F910F91089582E48F8317
:1018100018861986809175048E8362E070E0CE018F
:1018200006960E948D018887998780917004909117
:101830007104DC01ED91FC910280F381E02D44E024
:1018400050E0BE016A5F7F4F099565E070E0CE0110
:1018500001960E94DE0690E080E00E944A16082F62
:1018600010E0109395030093940386E00E94CD014D
:10187000892BE1F461E084E00E94F60162E370E00C
:1018800080E090E00E94D202109296030F30110582
:101890000CF06CC00D5F1F4F1093950300939403E1
:1018A0006091940390E080E00E9452168FEF90E0E8
:1018B0000E94550261E087E00E94F60160E089E045
:1018C0000E94F60161E08AE00E94F60160E084E097
:1018D0000E94F60160E08BE00E94F60110929603F0
:1018E0000E940B0960E080E00E9416098BE891E0FD
:1018F0000E94ED0980919403909195030E94C40980
:1019000085E991E00E94ED0960E08EE00E941609F1
:1019100087E991E00E94ED0962E080E00E941609EB
:101920008DE991E00E94ED090E94EF091092910269
:1019300010929202109293021092940210929502C9
:101940000E94EF098091B8049091B904A091BA0463
:10195000B091BB0462E085369105A105B10590F018
:101960008BE00E94160987EA91E043CF80E190E086
:101970000F30110511F086E090E09093950380936D
:1019800094038ECF8BE00E94160981EB91E031CF5A
:101990004F925F926F927F928F929F92AF92BF927F
:1019A000CF92DF92EF92FF92CF93DF9300D000D0DF
:1019B000CDB7DEB70E94B207C12CD12C20ECE22EAD
:1019C0002FE7F22E882341F0C0907704D09078045E
:1019D000E0907904F0907A040E94B207812C912C57
:1019E00090ECA92E9FE7B92E882341F080907B04CC
:1019F00090907C04A0907D04B0907E040E94B20779
:101A0000882309F41FC140907F04509080046090A7
:101A10008104709082040E94B207882309F419C1DE
:101A20008091830490918404A0918504B0918604F0
:101A300089839A83AB83BC830E940B0960E080E0BA
:101A40000E9416098BE891E00E94ED0980919403B1
:101A5000909195030E94C40985E991E00E94ED09E7
:101A60000E94EF0962E080E00E9416098BEB91E092
:101A70000E94ED0942E0C701B6010E94930A8FEB74
:101A800091E00E94ED0962E08BE00E94160981EC72
:101A900091E00E94ED0940E0C301B2010E94930A67
:101AA00084EC91E00E94ED0963E080E00E94160959
:101AB00087EC91E00E94ED0942E0C501B4010E946B
:101AC000930A85E991E00E94ED0963E08BE00E94B2
:101AD00016098BEC91E00E94ED0942E069817A8160
:101AE0008B819C810E94930A8EEC91E00E94ED090B
:101AF00020E030E048E453E4C701B6010E94CD166F
:101B000018160CF4ABC00E945F070E940B0960E03E
:101B100086E00E94160982ED91E00E94ED0961E0E5
:101B200084E00E9416098AED91E00E94ED0963E0CD
:101B300080E00E94160987EE91E00E94ED0981E0A5
:101B400080938C0260E67AEE80E090E00E94D20200
:101B500020E030E040E753E4C701B6010E942C18B2
:101B600018160CF094C00E945F078FEF90E00E945F
:101B700055020E940B0960E086E00E94160982ED82
:101B800091E00E94ED0961E084E00E9416098BEF6C
:101B900091E00E94ED0963E080E00E94160987EE63
:101BA00091E00E94ED0981E080938B0260E67AEE7D
:101BB00080E090E00E94D20220E030E040EA51E470
:101BC000C501B4010E942C1818160CF078C00E94B0
:101BD0005F078FEF90E00E9455020E940B0960E0C2
:101BE00086E00E94160982ED91E00E94ED0961E015
:101BF00084E00E9416098AED91E00E94ED0963E0FD
:101C000080E00E94160987EE91E00E94ED0981E0D4
:101C100080938A0260E67AEE80E090E00F900F9069
:101C20000F900F90DF91CF91FF90EF90DF90CF90CA
:101C3000BF90AF909F908F907F906F905F904F90EC
:101C40000C94D202412C512C80EC682E8FE7782E18
:101C5000E2CE80E090E0A0ECBFE7EACE80918C027B
:101C6000882309F475CF20E030E048E453E4C7014D
:101C7000B6010E942C1818160CF06ACF10928C0234
:101C80000E94A90B0E946E0F0E94A00E61CF80914E
:101C90008B02882309F490CF20E030E040E753E442
:101CA000C701B6010E94CD1687FF86CF10928B0226
:101CB0000E94A90B0E946E0F0E94A00E7DCF809102
:101CC0008A02882351F120E030E040EA51E4C50166
:101CD000B4010E94CD1687FF20C060E67AEE80E056
:101CE00090E00E94D20210928A020E94A90B0E94E8
:101CF0006E0F0F900F900F900F90DF91CF91FF908C
:101D0000EF90DF90CF90BF90AF909F908F907F909B
:101D10006F905F904F900C94A00E0F900F900F90CB
:101D20000F90DF91CF91FF90EF90DF90CF90BF9019
:101D3000AF909F908F907F906F905F904F9008959D
:101D40000F931F93CF9361E08BE00E94F6016091A7
:101D5000940370919503072E000C880B990B0E9439
:101D60007C172AE939E949E15FE30E94D21620E0B5
:101D700030E04FE753E40E94311820E030E048ECB7
:101D800052E40E94D21620E030E040EB51E40E9481
:101D900061160E944417CB010E94550260E087E063
:101DA0000E94F60160E089E00E94F60161E08AE0AD
:101DB0000E94F60180919603811111C061E084E0D8
:101DC0000E94F60164EF71E080E090E00E94D20290
:101DD00060E084E00E94F60181E080939603C1E018
:101DE00080919703909198038B5693408337910588
:101DF00008F070C00E948E0780919502811118C072
:101E00000E94050300919102109192022091930289
:101E100030919402601B710B820B930B60938D02C7
:101E200070938E0280938F0290939002C0939502DC
:101E300060E08EE00E94160987E092E00E94ED09C2
:101E40000E94C80C82E00E94CD010197C9F560E0B4
:101E500087E00E94F6018FEF90E00E94550260E05B
:101E60008AE00E94F60160E08BE00E94F60161E0EA
:101E700089E00E94F60161E084E00E94F60162E3DD
:101E800070E080E090E00E94D20260E084E00E9476
:101E9000F60160E089E00E94F60162E370E080E014
:101EA00090E00E94D202109296030E940B0962E019
:101EB00080E00E9416098EE092E00E94ED09C7CFF3
:101EC00080919703909198038B56934083379105A7
:101ED00008F486CFCF911F910F9108950F931F9310
:101EE00060E08BE00E94F60160919403709195038D
:101EF000072E000C880B990B0E947C172AE939E900
:101F000049E15FE30E94D21620E030E04FE753E45E
:101F10000E94311820E030E048EC52E40E94D216D2
:101F200020E030E040EB51E40E9461160E9444172B
:101F3000CB010E94550261E087E00E94F60160E05B
:101F400089E00E94F60161E08AE00E94F60160E00B
:101F500084E00E94F60110929603809195028823F6
:101F6000C1F00E94050300918D0210918E02209114
:101F70008F0230919002601B710B820B930B609368
:101F80009102709392028093930290939402109224
:101F900095020E940B090E94EF090E94C80C60E0A4
:101FA0008EE00E9416098AE192E01F910F910C9435
:101FB000ED091F920F920FB60F9211242F933F93AA
:101FC0008F939F93AF93BF9380919A0390919B03BC
:101FD000A0919C03B0919D033091990323E0230FBE
:101FE0002D3758F50196A11DB11D209399038093BB
:101FF0009A0390939B03A0939C03B0939D038091BD
:102000009E0390919F03A091A003B091A10301961C
:10201000A11DB11D80939E0390939F03A093A003E5
:10202000B093A103BF91AF919F918F913F912F9159
:102030000F900FBE0F901F90189526E8230F029661
:10204000A11DB11DD2CF1F920F920FB60F92112476
:102050002F933F934F935F936F937F938F939F93B0
:10206000AF93BF93EF93FF938BEB93E00E949103A9
:10207000FF91EF91BF91AF919F918F917F916F9160
:102080005F914F913F912F910F900FBE0F901F9036
:1020900018951F920F920FB60F9211242F938F93C2
:1020A0009F93EF93FF93E091CB03F091CC0380815A
:1020B000E091D103F091D20382FD1BC09081809109
:1020C000D4038F5F8F732091D503821741F0E09185
:1020D000D403F0E0E554FC4F958F8093D403FF9137
:1020E000EF919F918F912F910F900FBE0F901F90A6
:1020F00018958081F4CF1F920F920FB60F92112482
:102100002F933F934F935F936F937F938F939F93FF
:10211000AF93BF93EF93FF938091B900887F803690
:1021200009F44AC0F0F5883209F4A7C018F58031E7
:1021300009F49BC0B8F4882309F4F9C0883009F485
:1021400094C0FF91EF91BF91AF919F918F917F913B
:102150006F915F914F913F912F910F900FBE0F9014
:102160001F901895883109F488C0803251F7809308
:10217000650314C0803409F49DC040F48033B9F382
:102180008833F9F68093650385ECB0C0803509F497
:1021900085C0883509F496C0883499F60E94710B81
:1021A000D0CF883909F48CC038F5883729F050F43D
:1021B000883611F0803729F683E080936603109209
:1021C000640357C0883809F47BC0803919F080381F
:1021D00009F0B7CF80916403803208F071C0E091BC
:1021E000640381E08E0F809364038091BB00F0E074
:1021F000EC5BFC4F80833DC0803B39F0E0F4803ADB
:1022000009F479C0883A09F09CCF84E08093660392
:102210001092430310924203E0918C03F0918D03DE
:1022200009958091420381110FC081E080934203A0
:102230001092220309C0803C09F4A6CF883C09F41F
:10224000A3CF883B09F07DCFE091430381E08E0F5F
:1022500080934303F0E0EE5DFC4F80818093BB00F0
:10226000909143038091420329C080918B03809316
:10227000BB0085EC8093BC0064CF90918A03809171
:102280008903981758F5E0918A0381E08E0F8093B7
:102290008A03F0E0E759FC4F8081E9CFE0918A039F
:1022A00081E08E0F80938A038091BB00F0E0E759B4
:1022B000FC4F808390918A03809189039817C8F21C
:1022C00085E8D8CFE0918A0381E08E0F80938A035E
:1022D0008091BB00F0E0E759FC4F80838091680358
:1022E00081115CCF81E08093670384EA8093BC0016
:1022F0001092660326CF85EC8093BC001092660393
:1023000080916403803230F4E0916403F0E0EC5B90
:10231000FC4F10826091640370E0E0918E03F091B5
:102320008F0384E493E00995109264030ACF10921E
:10233000650334CF1F920F920FB60F9211242F9383
:102340003F934F935F936F937F938F939F93AF933D
:10235000BF93EF93FF93E091D802F091D9023097A9
:1023600049F0A685B7858585968D91FF14C09C910F
:102370008923A1F4FF91EF91BF91AF919F918F912C
:102380007F916F915F914F913F912F910F900FBE71
:102390000F901F9018959C91892361F7A389B489A8
:1023A0009C918589809589238C938689978901974B
:1023B000F1F7608D718DA685B785558538E020E0F1
:1023C000CB010197F1F7822F90E095958795282F03
:1023D0004C91452309F02068315091F7868D81FD9D
:1023E00020958091D60290E001968F7399273091C5
:1023F000D702381799F0A091D602B0E0AA56BD4F87
:102400002C938093D602828D938D0197F1F7A38947
:10241000B4898C919589892B8C93ACCF868D816002
:10242000868FF1CFCF92DF92EF92FF920F931F939F
:10243000E82FF92F05C0015011092109310961F177
:10244000908196239417B9F305C001501109210911
:10245000310911F1908196239413F7CFC12CD12C1F
:10246000E12CF12C0AC08FEFC81AD80AE80AF80A42
:102470000C151D052E053F0579F0808186238417F4
:1024800091F36C2D7D2D8E2D9F2D1F910F91FF901F
:10249000EF90DF90CF90089560E070E080E090E0F2
:1024A0001F910F91FF90EF90DF90CF900895CF9202
:1024B000DF92EF92FF921092BE031092BD0398EE4E
:1024C000C92E93E0D92EE12CF12CC092BF03D092FB
:1024D000C003E092C103F092C20382E191E09093C5
:1024E000BC038093BB0385EC90E09093C80380937A
:1024F000C70384EC90E09093CA038093C90380ECF7
:1025000090E09093CC038093CB0381EC90E0909388
:10251000CE038093CD0382EC90E09093D003809320
:10252000CF0386EC90E09093D2038093D103109276
:10253000D4031092D5031092D6031092D7031092B1
:102540005B0410925A04C0925C04D0925D04E09245
:102550005E04F0925F0484E291E0909359048093CA
:1025600058040E9450096093B8047093B904809392
:10257000BA049093BB0410929C0410929B04C092E6
:102580009D04D0929E04E0929F04F092A00482E405
:1025900091E090939A04809399041092B004109261
:1025A000AF041092B2041092B1041092B4041092CD
:1025B000B3041092B6041092B5046091B7046E7F14
:1025C0006D7F6093B7046695617081E068278CE049
:1025D0000E94F60161E08CE00E942402EAEBF2E046
:1025E000E491E093A904E6EAF2E0E491F0E0EE0F72
:1025F000FF1FE057FD4F859194919093AB0480931A
:10260000AA0460E08DE00E9424028091B70481FD5D
:1026100004C061E08DE00E94F6018DE08093A50486
:10262000EBEBF2E0E491E093A604E7EAF2E0E49158
:10263000F0E0EE0FFF1FEA57FD4F859194919093C4
:10264000A8048093A70410927404109273048DE977
:1026500091E09093B6048093B5042DEB30E0309375
:10266000B0042093AF042BE931E03093B2042093FF
:10267000B1042CE231E03093B4042093B3042091F0
:1026800068002160209368002BE630E03093AD04B1
:102690002093AC0420E22093AE040197F1F789E97E
:1026A00094E00E94B50688EF8093750489E994E070
:1026B000909371048093700481E0809372048FEF93
:1026C0008093910480939204809393048093940464
:1026D0008093950480939604809397048093980444
:1026E00010927604109267041092660486E391E0DB
:1026F000909365048093640487E28093680484E186
:1027000080936D0484E080936E0410926F04FF90B8
:10271000EF90DF90CF900895789484B5826084BD67
:1027200084B5816084BD85B5826085BD85B58160D5
:1027300085BD80916E00816080936E001092810053
:10274000809181008260809381008091810081600E
:1027500080938100809180008160809380008091CF
:10276000B10084608093B1008091B000816080935B
:10277000B00080917A00846080937A0080917A0022
:10278000826080937A0080917A00816080937A00E1
:1027900080917A00806880937A001092C100E09165
:1027A000CB03F091CC0382E08083E091C703F091EA
:1027B000C8031082E091C903F091CA038FEC8083B3
:1027C0001092D303E091CF03F091D00386E0808391
:1027D000E091CD03F091CE03808180618083E09110
:1027E000CD03F091CE03808188608083E091CD039A
:1027F000F091CE03808180688083E091CD03F091D9
:10280000CE0380818F7D808389E090E09093950353
:10281000809394038091B100807F8B608093B1009E
:1028200088EF8093B30061E083E00E94240261E0BE
:102830008AE00E94240261E089E00E94240261E0B3
:1028400087E00E94240261E08BE00E94240261E0A4
:1028500084E00E94240261E083E00E94240260E0A0
:102860008EE00E9424028FEF90E00E94550260E00B
:102870008BE00E94F60161E087E00E94F601109271
:1028800093031092920310929103109290030E946E
:10289000470481E193E090938D0380938C0382E160
:1028A00093E090938F0380938E031092690480913C
:1028B0006E04823018F098E09093690480936C0461
:1028C00062E370E080E090E00E94D20260916F04C9
:1028D00084E694E00E940C0568EE73E080E090E0EE
:1028E0000E94D20260E384E694E00E94DB08CBE41D
:1028F000D6E4CE010197F1F760E384E694E00E940C
:10290000DB082197F1F760E384E694E00E94DB089E
:1029100083E592E00197F1F760E284E694E00E949B
:10292000DB0860916904606240E084E694E00E9404
:10293000F40884E080936A0440E06CE084E694E06C
:102940000E94F4080E940B0982E080936B0440E02F
:1029500066E084E694E00E94F40840E062E084E6E9
:1029600094E00E94F4088BE39FE10197F1F7109245
:102970009103109290030E9447048CE08093B8006A
:1029800088E080936F0460E084E694E00E940C0588
:102990000E940B0960E080E00E94160981E292E04B
:1029A0000E94ED0961E080E00E9416098EE292E04B
:1029B0000E94ED0963E080E00E94160987E392E03F
:1029C0000E94ED090E9450098091B8049091B904C9
:1029D000A091BA04B091BB0485369105A105B1055B
:1029E00008F499C00E940B0960E080E00E9416097B
:1029F00081E292E00E94ED0961E080E00E94160908
:102A00008EE292E00E94ED0963E080E00E941609E8
:102A100089E492E00E94ED0968EE73E080E090E0C6
:102A20000E94D20268EE73E080E090E00E94D20241
:102A300063E080E00E94160981E692E00E94ED09C1
:102A400082E00E94CD0182E00E94CD01019709F051
:102A50009FC060E087E00E94F6018FEF90E00E9447
:102A6000550260E08AE00E94F60160E08BE00E947F
:102A7000F60161E089E00E94F60161E084E00E94D5
:102A8000F60162E370E080E090E00E94D20260E034
:102A900084E00E94F60160E089E00E94F60162E3B2
:102AA00070E080E090E00E94D202109296030E94B3
:102AB0000B0960E080E00E94160982E792E00E9424
:102AC000ED0962E080E00E9416098EE092E00E942B
:102AD000ED0968EE73E080E090E00E94D202C0E071
:102AE000D0E00E948E078091970390919803833FD6
:102AF00023E092070CF465C0811594400CF073C07C
:102B00000E94A90B209769F30E947D03882349F353
:102B10000E940000E6CF8FEF90E00E94550260E037
:102B200087E00E94F60160E08AE00E94F60161E021
:102B300089E00E94F60161E084E00E94F6016CE207
:102B400071E080E090E00E94D20260E089E00E94A3
:102B5000F60160E084E00E94F6016CE271E080E042
:102B600090E00E94D202109296030E940B0960E04E
:102B700086E00E94160982ED91E00E94ED0962E074
:102B800085E00E94160988E592E00E94ED094ACF8F
:102B90000E940B0960E080E00E94160981E292E049
:102BA0000E94ED0961E080E00E9416098EE292E049
:102BB0000E94ED0963E080E00E9416098DE991E032
:102BC00086CF833E23E0920734F0823F93405CF44B
:102BD0000E946E0F97CF8B5693408738910518F45B
:102BE0000E94A00E8FCF8FEF90E00E94550260E010
:102BF0008BE00E94F60160E089E00E94F60160E04F
:102C000084E00E94F6016CE271E080E090E00E94B6
:102C1000D20261E089E00E94F60161E084E00E9456
:102C2000F6016CE271E080E090E00E94D20260E088
:102C300087E00E94F60160E08AE00E94F6011092AF
:102C400096030E940B0960E080E00E9416098BE762
:102C500092E00E94ED0956CFCF93DF93C0917304A9
:102C6000D0917404209751F082E491E09983888395
:102C7000CE010E949F06CE010E948F1982E491E04E
:102C800090939A048093990489E994E0DF91CF911D
:102C90000C949F06F999FECF92BD81BDF89A9927B1
:102CA00080B50895262FF999FECF1FBA92BD81BD38
:102CB00020BD0FB6F894FA9AF99A0FBE01960895BE
:102CC0005058BB27AA270E9478160C94F2170E942E
:102CD000E41738F00E94EB1720F039F49F3F19F405
:102CE00026F40C94E1170EF4E095E7FB0C94DB1747
:102CF000E92F0E94031858F3BA1762077307840775
:102D0000950720F079F4A6F50C9425180EF4E095BB
:102D10000B2EBA2FA02D0B01B90190010C01CA0195
:102D2000A0011124FF27591B99F0593F50F4503E40
:102D300068F11A16F040A22F232F342F4427585F32
:102D4000F3CF469537952795A795F0405395C9F74A
:102D50007EF41F16BA0B620B730B840BBAF0915002
:102D6000A1F0FF0FBB1F661F771F881FC2F70EC0A1
:102D7000BA0F621F731F841F48F487957795679574
:102D8000B795F7959E3F08F0B0CF9395880F08F060
:102D90009927EE0F9795879508950E94B71708F425
:102DA00081E008950E94E6160C94F2170E94EB173A
:102DB00058F00E94E41740F029F45F3F29F00C948A
:102DC000DB1751110C9426180C94E1170E9403187C
:102DD00068F39923B1F3552391F3951B550BBB274A
:102DE000AA2762177307840738F09F5F5F4F220F8F
:102DF000331F441FAA1FA9F335D00E2E3AF0E0E886
:102E000032D091505040E695001CCAF72BD0FE2FCF
:102E100029D0660F771F881FBB1F26173707480763
:102E2000AB07B0E809F0BB0B802DBF01FF2793581B
:102E30005F4F3AF09E3F510578F00C94DB170C94ED
:102E400026185F3FE4F3983ED4F38695779567950F
:102E5000B795F7959F5FC9F7880F911D9695879550
:102E600097F90895E1E0660F771F881FBB1F62176F
:102E700073078407BA0720F0621B730B840BBA0B2D
:102E8000EE1F88F7E09508950E944B176894B111E2
:102E90000C94261808950E940B1888F09F5798F0FC
:102EA000B92F9927B751B0F0E1F0660F771F881F4F
:102EB000991F1AF0BA95C9F714C0B13091F00E9469
:102EC0002518B1E008950C942518672F782F8827CE
:102ED000B85F39F0B93FCCF3869577956795B39590
:102EE000D9F73EF490958095709561957F4F8F4FFF
:102EF0009F4F0895E89409C097FB3EF49095809504
:102F0000709561957F4F8F4F9F4F9923A9F0F92FAF
:102F100096E9BB279395F695879577956795B7952D
:102F2000F111F8CFFAF4BB0F11F460FF1BC06F5F13
:102F30007F4F8F4F9F4F16C0882311F096E911C025
:102F4000772321F09EE8872F762F05C0662371F046
:102F500096E8862F70E060E02AF09A95660F771F5A
:102F6000881FDAF7880F9695879597F90895990F36
:102F70000008550FAA0BE0E8FEEF16161706E80743
:102F8000F907C0F012161306E407F50798F0621B64
:102F9000730B840B950B39F40A2661F0232B242B39
:102FA000252B21F408950A2609F4A140A6958FEF58
:102FB000811D811D089597F99F6780E870E060E0AA
:102FC00008959FEF80EC089500240A9416161706C2
:102FD00018060906089500240A941216130614060A
:102FE00005060895092E0394000C11F4882352F06D
:102FF000BB0F40F4BF2B11F460FF04C06F5F7F4F25
:103000008F4F9F4F089557FD9058440F551F59F00B
:103010005F3F71F04795880F97FB991F61F09F3FC5
:1030200079F087950895121613061406551FF2CFEE
:103030004695F1DF08C0161617061806991FF1CF3E
:1030400086957105610508940895E894BB27662765
:103050007727CB0197F908950E94B71708F48FEFEF
:1030600008950E9444180C94F2170E94E41738F057
:103070000E94EB1720F0952311F00C94DB170C94B1
:10308000E11711240C9426180E94031870F3959FE1
:10309000C1F3950F50E0551F629FF001729FBB274F
:1030A000F00DB11D639FAA27F00DB11DAA1F649FEB
:1030B0006627B00DA11D661F829F2227B00DA11D9E
:1030C000621F739FB00DA11D621F839FA00D611D24
:1030D000221F749F3327A00D611D231F849F600D45
:1030E000211D822F762F6A2F11249F5750409AF06E
:1030F000F1F088234AF0EE0FFF1FBB1F661F771FFA
:10310000881F91505040A9F79E3F510580F00C94C4
:10311000DB170C9426185F3FE4F3983ED4F38695B2
:1031200077956795B795F795E7959F5FC1F7FE2B64
:10313000880F911D9695879597F908950E94B71766
:10314000880B990B089597FB072E16F4009407D06F
:1031500077FD09D00E94D91807FC05D03EF4909560
:1031600081959F4F0895709561957F4F0895A1E2D5
:103170001A2EAA1BBB1BFD010DC0AA1FBB1FEE1FF1
:10318000FF1FA217B307E407F50720F0A21BB30B3C
:10319000E40BF50B661F771F881F991F1A9469F7B8
:1031A00060957095809590959B01AC01BD01CF0114
:1031B0000895AA1BBB1B51E107C0AA1FBB1FA6177E
:1031C000B70710F0A61BB70B881F991F5A95A9F7D0
:1031D00080959095BC01CD010895EE0FFF1F0590DD
:1031E000F491E02D09940F931F93CF93DF938230D6
:1031F000910510F482E090E0E091BE04F091BF04EC
:1032000030E020E0B0E0A0E0309799F421153105DE
:1032100009F44AC0281B390B24303105D8F58A81BE
:103220009B816115710589F1FB0193838283FE0106
:1032300011C0408151810281138148175907E0F084
:103240004817590799F4109761F012960C9312974A
:1032500013961C933296CF01DF91CF911F910F915E
:1032600008950093BE041093BF04F4CF21153105D7
:1032700051F04217530738F0A901DB019A01BD0153
:10328000DF01F801C1CFEF01F9CF9093BF04809324
:10329000BE04CDCFFE01E20FF31F81939193225024
:1032A000310939832883D7CF2091BC043091BD04E4
:1032B000232B41F420910201309103013093BD048E
:1032C0002093BC04209100013091010121153105AA
:1032D00041F42DB73EB74091040150910501241BE4
:1032E000350BE091BC04F091BD04E217F307A0F4A4
:1032F0002E1B3F0B2817390778F0AC014E5F5F4F4C
:103300002417350748F04E0F5F1F5093BD044093BC
:10331000BC04819391939FCFF0E0E0E09CCFCF93EA
:10332000DF930097E9F0FC01329713821282A0919B
:10333000BE04B091BF04ED0130E020E01097A1F48D
:1033400020813181820F931F2091BC043091BD04F4
:103350002817390709F061C0F093BD04E093BC045D
:10336000DF91CF910895EA01CE17DF07E8F54A8192
:103370005B819E0141155105B1F7E901FB83EA83A9
:1033800049915991C40FD51FEC17FD0761F4808155
:1033900091810296840F951FE90199838883828128
:1033A00093819B838A83F0E0E0E012968D919C915B
:1033B00013970097B9F52D913C911197CD01029685
:1033C000820F931F2091BC043091BD042817390748
:1033D00039F6309751F51092BF041092BE04B093A5
:1033E000BD04A093BC04BCCFD383C2834081518170
:1033F000840F951FC817D90761F44E5F5F4F88810E
:103400009981480F591F518340838A819B819383FF
:1034100082832115310509F0B0CFF093BF04E0930A
:10342000BE049ECFFD01DC01C0CF13821282D7CF34
:1034300011E0C2E6D1E004C0FE010E94ED18219621
:0A344000C336D107C9F7F894FFCF97
:10344A000000C00480000000400014005400000086
:10345A000000B30313034003000471034F03630323
:10346A0000000000DD04B0045C078604A904960489
:10347A008704000000004A0913035C07F3050000F3
:10348A0000000C0613035C07860468067E06F40532
:10349A0054696D65203D20006820006D696E20002A
:1034AA0073006E616E00696E66006F76660045563F
:1034BA005353204C3100474643492053656C667488
:1034CA00657374203D206661696C0045565353202C
:1034DA004C31203A00410052656164790047464305
:1034EA0049203D204F4B0045617274683D204F4B87
:1034FA00004561727468203D4E6F00563D200056AB
:10350A0000503D00205700493D2000453D006B57C3
:10351A0068005741524E494E4700556E64657256CF
:10352A006F6C74616765007265737461727420618F
:10353A00667465722031206D696E004F7665727609
:10354A006F6C7461676500434841524745004746BE
:10355A004349203D206661696C00506C7567696E4D
:10356A000045565353204C6576656C203100506FE8
:10357A00776572204F4E00436865636B696E6720FA
:10358A0045617274682E2E2E004561727468207629
:10359A0065726966696564004E6F20456172746878
:1035AA0000436865636B696E6720474643492E2E60
:1035BA002E005761726E696E6721005761726E69DB
:0A35CA006E67204572726F720000F8
:00000001FF
